:020000040C00EE
:100000000088FE1F010200089902000899020008FA
:1000100099020008990200089902000800000000F7
:10002000000000000000000000000000990200082D
:1000300099020008000000009902000899020008D7
:100040009902000899020008990200089902000824
:100050009902000899020008990200089902000814
:1000600099020008000000000000000000000000ED
:100070009902000800000000990200089902000897
:1000800099020008990200089902000899020008E4
:1000900099020008990200089902000899020008D4
:1000A00099020008990200089902000899020008C4
:1000B00099020008990200089902000899020008B4
:1000C00099020008990200089902000899020008A4
:1000D0009902000899020008990200089902000894
:1000E0009902000899020008990200089902000884
:1000F0009902000899020008990200089902000874
:100100009902000899020008990200089902000863
:100110009902000899020008990200089902000853
:100120009902000899020008990200089902000843
:100130009902000899020008990200089902000833
:100140009902000899020008990200089902000823
:100150009902000899020008990200089902000813
:10016000000000000000000000000000000000008F
:1001700099020008391F0008990200089902000836
:1001800099020008990200089902000899020008E3
:1001900099020008990200089902000899020008D3
:1001A00099020008990200089902000899020008C3
:1001B00099020008990200089902000899020008B3
:1001C00099020008990200089902000899020008A3
:1001D0009902000899020008990200080000000036
:1001E0009902000899020008990200089902000883
:1001F00099020008000000009902000800000000B9
:10020000DFF874D01D4880471D4C1E4DAC4209DA02
:1002100021686268A368043BA2BFC858D050FAE7BF
:100220000C34F3E7184B194CA34208DA19685A68E2
:100230000020043AA4BF8850FBE70833F4E71448D1
:1002400080471448804700000023000C0088FE1FF0
:10025000FC0300000023000C0088FE1F00000000CB
:10026000FC8BFE1F050000000000002000000000C5
:1002700000000020000000000088FE1F9D02000812
:1002800048020008600200086002000878020008C6
:10029000991F0008A11E0008FEE7000098B500AFF6
:1002A000054A4FF0005314460FCB84E80F0001F0CD
:1002B00063FA01F0CBFA98BDC4FF032080B584B087
:1002C00000AF2F4BDB6803F48033002B3ED02D4B67
:1002D000DB6803F00103002B02D02B4BFB6002E034
:1002E00001F0AAFAF860274B1B6803F00403002B07
:1002F00020D0244B9B6803F070631B0E0133BB605E
:10030000204B9B6803F4FE431B0A01337B601D4BAB
:100310009B6803F4FE031B0C01333B60BB683A6827
:1003200002FB03F3FA68B2FBF3F37A6802FB03F310
:10033000FB600DE0134B9B6803F07F0301333B60D0
:10034000FA683B68B2FBF3F3FB6001E00E4BFB6025
:100350000B4BDB68DBB20133FA68B2FBF3F3FB60F3
:10036000074B1B6903F001030133FA68B2FBF3F397
:10037000FB60064AFB6813601037BD4680BD00BFB6
:10038000004600501047005000366E01C0FF0320A9
:1003900080B485B000AFF8600B467A60FB72FB7AE0
:1003A0009B08DBB21846FB7A9B08DBB21A46FB6857
:1003B000043253F82220FB7A03F00303DB001946D2
:1003C000F8238B40DB4302EA0301FB68021D43F87C
:1003D0002210FB685A6FFB7A5B00194603238B409F
:1003E000DB431A40FB685A67FB68374A934203D0E5
:1003F000FB68364A93420AD1FB681A6EFB7A0121E8
:1004000001FA03F3DB431A40FB681A663CE07B68A1
:100410005A68FB7A9A40FB685A60FB7ADB08DBB2C9
:100420001846FB7ADB08DBB21A46FB68103253F839
:100430002220FB7A03F007039B00194607238B4019
:10044000DB4302EA0301FB6800F1100243F82210CB
:10045000FB7ADB08DBB21846FB7ADB08DBB21A4614
:10046000FB68103253F822207B681B7A1946FB7A0E
:1004700003F007039B0001FA03F342EA0301FB6860
:1004800000F1100243F82210FB7A9B08DBB21846F9
:10049000FB7A9B08DBB21A46FB68043253F8222031
:1004A0007B681B781946FB7A03F00303DB0001FA33
:1004B00003F342EA0301FB68021D43F822101437DC
:1004C000BD465DF8047B7047008E0248008F0248ED
:1004D00080B400AF034B1B681846BD465DF8047B33
:1004E000704700BFC0FF032080B584B000AF7860C4
:1004F000FFF7E4FE0B4B1B680B4AA2FB03239A0C8D
:100500007B6802FB03F37B600023FB6003E000BF1A
:10051000FB680133FB60FA687B689A42F7D31037B7
:10052000BD4680BDC0FF032083DE1B43B0B584B051
:1005300002AF7860002000F08DF800F035FA7B689B
:10054000DB79002B01D000F059FA7B685B7A184602
:1005500000F0FAF87B681B7A184600F0FFF97B6818
:100560001B7C184600F00EF97B685B7C184600F097
:1005700031F97B689B7C184600F018F97B68DB7CBE
:10058000184600F03BF97B689B79002B01D000F006
:100590006FFA7B68DB78002B02D100F0A9FA14E037
:1005A00000F096FA7B6899887B68DA787B685B78DC
:1005B0001D467B681B781C467B689B780093084629
:1005C00011462A46234600F0A3FA7B68DB68B3F5A0
:1005D000803F03D14FF4803000F03CF8FFF76EFE0F
:1005E0000837BD46B0BD00BF80B485B000AF7860AD
:1005F0007B681B0FFB607B6823F07043BB60FA686D
:1006000013465B0013449B00094A1A44F9680B46E1
:100610005B000B449B001946054B0B441968BB68F3
:100620000B4313601437BD465DF8047B704700BF71
:100630001444005080B500AFFFF74AFF0246044B58
:100640005B6903F0010322FA03F3184680BD00BF83
:100650000046005080B483B000AF78600649064B76
:10066000DB6823F480327B681343CB600C37BD46D4
:100670005DF8047B704700BF0046005080B483B033
:1006800000AF78600649064B9B6923F480327B6893
:1006900013438B610C37BD465DF8047B704700BF88
:1006A0000046005080B483B000AF78600649064B26
:1006B0005B6A23F440327B6813434B620C37BD46C0
:1006C0005DF8047B704700BF0046005080B483B0E3
:1006D00000AF0346FB80FB88002B08D10A4A0A4B77
:1006E000DB6823F4807323F00103D36007E0064A3C
:1006F000054BDB6843F4807343F00103D3600C3790
:10070000BD465DF8047B70471047005080B483B04D
:1007100000AF0346FB7100BF094BD3F8C43003F0B0
:100720000803002BF8D10749064BDB6823F0400291
:10073000FB791343CB600C37BD465DF8047B7047F3
:10074000004000500043005080B483B000AF034627
:10075000FB7100BF094BD3F8C43003F00803002B32
:10076000F8D10749064BDB6823F08002FB7913437D
:10077000CB600C37BD465DF8047B704700400050ED
:100780000043005080B483B000AF78600649064B48
:10079000DB6823F0FF027B68013B1343CB600C371F
:1007A000BD465DF8047B70470046005080B483B0BE
:1007B00000AF78600649064B1B6A23F001027B6894
:1007C000013B13430B620C37BD465DF8047B704759
:1007D0000046005080B483B000AF78600649064BF5
:1007E0001B6923F001027B68013B13430B610C374B
:1007F000BD465DF8047B70470046005080B483B06E
:1008000000AF78600649064B5B6923F001027B6804
:10081000013B13434B610C37BD465DF8047B7047C9
:100820000046005080B483B000AF78600649064BA4
:100830009B6923F007027B68013B13438B610C37F4
:10084000BD465DF8047B70470046005080B483B01D
:1008500000AF78600649064BDB6923F03F027B68F6
:10086000013B1343CB610C37BD465DF8047B7047F9
:100870000046005080B483B000AF78600649064B54
:100880005B6A23F0FF027B68013B13434B620C372A
:10089000BD465DF8047B70470046005080B485B0CB
:1008A00000AF78607B681B0FFB607B6823F07043B0
:1008B000BB60FA6813465B0013449B00094A1A4464
:1008C000F9680B465B000B449B001946054B0B4433
:1008D0001968BB680B4313601437BD465DF8047B91
:1008E000704700BF4846005080B483B000AF7860C6
:1008F0003960194A184B5B6943F001035361164A8A
:10090000154B5B6943F01003536113493B68013B8E
:100910001A027B68013B1B0613434B610E4A0E4BC8
:100920005B6943F0400353610B4A0B4B5B6923F057
:1009300010035361084A084B5B6943F480235361F9
:1009400000BF054B1B6903F00403002BF9D00C37E3
:10095000BD465DF8047B70471047005080B582B0FB
:1009600000AF0346FB710F4A0E4B5B6843F48013E4
:100970005360FB79012B0ED10A4A0A4B5B6823F4C2
:10098000801353606420FFF7AFFD064A054B5B6898
:1009900043F4002353606420FFF7A6FD0837BD46EB
:1009A00080BD00BF1047005080B500AF114B1B68E1
:1009B00003F00103002B0CD10E4A0E4B5B6843F091
:1009C0000103536000BF0B4B1B6803F00103002BB6
:1009D000F9D0094B1B6803F40073002B08D0064ABA
:1009E000054B9B6843F4007393609620FFF77CFDF2
:1009F00080BD00BF004200500044005080B500AFF1
:100A000000BF194BD3F8C43003F08003002BF8D19A
:100A1000164A164BDB6923F03003D36100BF124B3B
:100A2000D3F8C43003F00803002BF8D10F4A0F4B62
:100A3000DB6843F00803D36000BF0B4BD3F8C4302E
:100A400003F00203002BF8D1084A084B5B6843F01F
:100A5000080353603220FFF747FD044B1B6803F087
:100A60000803002BE8D180BD004000500043005037
:100A7000B0B500AF134A134B5B6823F48033536067
:100A8000114D114B5B6823F4702424F0300400F006
:100A9000D3FE02460D4BA3FB02231B0D013B1B049F
:100AA00023436B60074A074B5B6823F400335360B2
:100AB00000BF044B1B6803F46073B3F5607FF8D18B
:100AC000B0BD00BF10470050004700506BCA5F6BBD
:100AD00080B400AF054A054B5B6823F4803323F0F4
:100AE00002035360BD465DF8047B70471047005019
:100AF00080B400AF054A054B5B6843F4803343F094
:100B000002035360BD465DF8047B704710470050F8
:100B100080B586B000AFBA607B600346FB810B46B0
:100B20007B73FB891846FFF7D1FD7B7B012B40F0DF
:100B30009980FB89002B08D100F07EFE07EE900A19
:100B4000F8EE677AC7ED057A01E0534B7B617B686D
:100B500007EE903AB8EE677AD7ED057A27EE277A56
:100B6000BB6807EE903AF8EE677AC7EE277AC7EDD2
:100B7000057AD7ED057AFCEEE77A17EE902A474B17
:100B8000A3FB02235B0D3B61454A454B5B6843F089
:100B900001035360424A424B5B6843F010035360C9
:100BA0003F493F4B9A683F4B13407A68013A120223
:100BB0001A433B69013B1B041A43BB68013B1B06FC
:100BC00013438B60364A364B5B6843F040035360F7
:100BD000334A334B5B6823F010035360304A304B89
:100BE0005B6843F48023536000BF2D4B1B6803F008
:100BF0000403002BF9D02A4A294B5B6823F0010338
:100C0000536000BF264B1B6803F00103002BF9D192
:100C1000D7ED057AFCEEE77A17EE903A1B0A224AE6
:100C2000A2FB03239B0A3B613A6A3B699A4202D2C8
:100C3000386900F03DF8D7ED057AFCEEE77A17EE5B
:100C4000903ADB09194AA2FB0323DB0A3B613A6AAB
:100C50003B699A4202D2386900F02AF8386A00F0FB
:100C600027F815E00E490E4B9B6823F07F023B6A84
:100C7000013B13438B600A4A094B5B6843F0010355
:100C8000536000BF064B1B6803F00103002BF9D033
:100C90001837BD4680BD00BF001BB74B819F5E1655
:100CA00010470050FF8080F0C7541E012FE3BE00A4
:100CB00080B582B000AF78600749074B9B6823F48A
:100CC000FE027B68013B1B0413438B603220FFF75D
:100CD0000BFC0837BD4680BD1047005080B483B080
:100CE00000AF7860084611461A460346FB700B4673
:100CF000BB7013467B70FA78BB781B0403F47F0348
:100D00001A437B781B061A437B68C3F8C4210C374F
:100D1000BD465DF8047B704780B483B000AF786057
:100D20007B681B6843F040027B681A600C37BD4645
:100D30005DF8047B704700BF80B483B000AF78607B
:100D40007B681B6823F040027B681A600C37BD4645
:100D50005DF8047B704700BF80B483B000AF78605B
:100D600039603A687B68934238BF134618460C379F
:100D7000BD465DF8047B704780B483B000AF7860F7
:100D800039603A687B68934228BF134618460C378F
:100D9000BD465DF8047B704780B590B000AF7860C9
:100DA00039600C23FB630C23BB6300237B630123AB
:100DB0003B6300237B610023FB6242F21073BB6242
:100DC0000123FB6367E03B681A6813469B001344EA
:100DD0005B001A46FB6BB2FBF3F33B613B685B685D
:100DE0003A69B2FBF3F37B62796A5B4BA3FB0123A5
:100DF000DA0813469B0013445B00CA1A052A09D976
:100E00007B6A554AA2FB0323DB087B627B6A0133C2
:100E10007B6205E07B6A504AA2FB0323DB087B620E
:100E20007B6A002B0AD07A6A13469B0013445B004E
:100E30001A463B69B3FBF2F33B6207E03B69464A63
:100E4000A2FB0323DB083B6201237B623B685A68F9
:100E50003B6A9A4205D83B685B683A6AD31AFB61E1
:100E600004E03B685A683B6AD31AFB617B6A142B27
:100E70000ED8BA6AFB699A420AD9FB6B7B637B6A1C
:100E8000FB62FB69BB62FB69B3F57A7F00D205E0C8
:100E9000FB6B0133FB63FB6B402B94D942F2107365
:100EA000BB624023BB632EE0BB6B013342F2107286
:100EB00002FB03F2FB6AB2FBF3F3FB603B681B89A6
:100EC0001A46FB689A4206D83B681B891A46FB689B
:100ED0009B1ABB6105E03B681B891A46FB68D31A65
:100EE000BB61BA6ABB699A4203D9BB6B3B63BB69FE
:100EF000BB623B681B891A46FB689A4200D905E031
:100F0000BB6B013BBB63BB6B022BCDD8FA6A3B6B5F
:100F1000D31A013B7B617868FFF7FEFE7B69013BDA
:100F20001B0303F4E0423B685B89013B9B01DBB29E
:100F30001A433B6B013B1B0203F470631A437B6B48
:100F4000013B03F03F031A437B681A617868FFF79F
:100F5000F3FE4037BD4680BDCDCCCCCC80B582B051
:100F600000AF78600B46FB701346BB70FB78013313
:100F7000DBB2BA7878680221FFF7B0FE00BF7B6869
:100F8000D3F8C43103F48073002BF8D10837BD4681
:100F900080BD00BF80B582B000AF78600A48FFF71F
:100FA0007DFC0948FFF720FB7B681B6823F00102EA
:100FB0007B681A6000BF7B681B6803F00203002B8C
:100FC000F9D10837BD4680BD1000001080B584B04F
:100FD00000AF7860786800F09FF80346012B02D0DC
:100FE000022B04D007E0FFF725FBF86006E000F0D5
:100FF00023FCF86002E00023FB6000BFFB6818469A
:101000001037BD4680BD00BF80B58EB000AFF86020
:101010000B467A60FB72F868FFF7BCFFFB7AF86852
:10102000194600F063F8F868FFF7D0FF78637A6B31
:101030007B68B2FBF3F3C3F5806300201946FFF72A
:101040008BFE0346184640F2FF31FFF795FE3863EA
:101050003B6BC3F580637A6BB2FBF3F3FB627B6897
:101060009B09BB627B6B9B097B62BB6A9A027B6AB2
:10107000B2FBF3F3184640F2FF31FFF77DFE386212
:101080007B6A3A6A02FB03F39B0AFB61FB699B01E3
:10109000FB617A68FB6AD21A7968FB69CB1A9A42BB
:1010A00094BF01230023FB76FB7E002B01D03B6B1A
:1010B00000E03B6A7B61FB7E002B01D0012300E056
:1010C0000223FB74FB68DB6823F4434323F0FF0334
:1010D000FA68D360FB68DA68FB7C99037B690B4391
:1010E0001A43FB68DA603837BD4680BD80B483B0F0
:1010F00000AF78600B46FB707B68D3F8C83123F0F3
:101100000F02FB781A437B68C3F8C8210C37BD4631
:101110005DF8047B704700BF80B483B000AF786097
:101120007B68D3F8C831DBB203F00F03DBB218469B
:101130000C37BD465DF8047B704700BF80B584B0B6
:1011400000AF78607B681B6803F13843A3F5A833D0
:101150005B09FB607B681B68FA6852095103FA68F7
:1011600002F01F0212020A439A607B68DB7903F0E7
:101170002003DBB2002B07D07B68DB7903F0200370
:10118000DBB2002B00D15CE07B681B7E002B04D01F
:101190007B681B7E012B00D053E07B681B682022FC
:1011A000DA617B68DB7903F02003DBB2002B28D106
:1011B0007B685B68BB60BB6803F06043BB607B68B7
:1011C0005B68C3F31C039B041A46BB681343BB60F4
:1011D0007B681B68BA689A617B689B68BB60BB6868
:1011E00003F06043BB607B689B68C3F31C039B04F4
:1011F0001A46BB681343BB607B681B68BA68DA6039
:1012000009E07B681B687A6852689A617B681B6892
:101210007A689268DA607B681B7E012B08D1786857
:1012200000F014F87B681B684FF00062DA6104E09C
:101230007B681B684FF40062DA617B681B68024AB6
:10124000DA611037BD4680BD4000A00680B485B08D
:1012500000AF78600323FB737B681B7E012B22D1D8
:101260007B681B682022DA617B681B687A681268D9
:10127000126822F070617A68127B120602F07062C6
:101280000A431A607B681B687A6812691A617B6876
:101290001B687A6852695A617B681B68064ADA6182
:1012A0000023FB7301E00323FB73FB7B1846143719
:1012B000BD465DF8047B70474000280080B487B0CD
:1012C00000AF78600123FB757B681B68DB6903F066
:1012D00020035B093B617B681B68DB6903F4807357
:1012E0001B0AFB603B69002B02D10423FB750CE059
:1012F000FB68012B02D10223FB7506E07B681B68AB
:101300004FF0E062DA610023FB75FB7D18461C3765
:10131000BD465DF8047B704780B487B000AF78604D
:101320000123FB750023BB7500237B757B681B685D
:10133000DB6903F40063DB0A3B617B681B68DB69E4
:1013400003F004039B08FB603B69002B02D00323DE
:10135000FB75A7E0FB68012B02D10223FB75A1E01E
:101360007B681B680822DA617B681B689B6903F055
:1013700000535B0F002B40D17A68D3796FF345138C
:10138000D3717B681B689A694A4B13409B0C23F00E
:1013900060417A68536861F31C0353607B681B6883
:1013A000DB6803F000535B0FDBB203F00103D9B23B
:1013B0007A68D37A61F34513D3727B68DB7A03F0E2
:1013C0002003DBB2002B0DD07B681B68DA68394B39
:1013D00013409B0C23F060417A68936861F31C030F
:1013E000936032E07B681B68DB6823F060417A68B9
:1013F000936861F31C03936027E07A68D37943F024
:101400002003D3717B681B689B6923F060417A6875
:10141000536861F31C0353607B681B68DB6823F02F
:1014200060417A68936861F31C0393607B681B6872
:10143000DB6803F000535B0FDBB203F00103D9B2AA
:101440007A68D37A61F34513D3727B681B681B6893
:1014500003F070631B0EDAB27B681A737B681B683B
:101460001A697B681A617B681B685A697B685A61D4
:101470007B681B68DB6903F004039B08BB757B6812
:101480001B68DB6903F00803DB087B75BB7D002B61
:1014900003D07B7D002B7FF463AF7B6800221A763C
:1014A0000023FB75FB7D18461C37BD465DF8047BA9
:1014B000704700BF0000FC1F80B483B000AF7860AD
:1014C00039603B68B3F5800F06D07B681A683B68CB
:1014D0001A437B681A6005E07B689A693B681A4387
:1014E0007B689A610C37BD465DF8047B704700BF8E
:1014F00080B483B000AF78600B46FB701346BB70BE
:101500007B685A6FFB785B00194603238B40DB43F3
:101510001A407B685A677B685A6FBB78F978490034
:101520008B401A437B685A670C37BD465DF8047BD5
:10153000704700BF80B400AFBD465DF8047B7047C4
:1015400080B400AF044BDB6803F4E0631B0A184669
:10155000BD465DF8047B704700ED00E080B483B0C9
:1015600000AF0346FB71084997F907305B09FA7928
:1015700002F01F02012000FA02F241F823200C378A
:10158000BD465DF8047B704700E100E080B483B0A5
:1015900000AF03463960FB7197F90730002B0BDA77
:1015A0000D49FB7903F00F03043B3A68D2B2920075
:1015B000D2B20B441A7609E0084997F907303A6825
:1015C000D2B29200D2B20B4483F800230C37BD464E
:1015D0005DF8047B704700BF00ED00E000E100E033
:1015E00080B489B000AFF860B9607A60FB6803F03E
:1015F0000703FB61FB69C3F10703062B28BF062322
:10160000BB61FB690633062B02D9FB69013B00E095
:1016100000237B61BB69012202FA03F35A1EBB68F7
:101620001A407B699A407B69012101FA03F3591E34
:101630007B680B40134318462437BD465DF8047B96
:10164000704700BF80B582B000AF78607B681B78C0
:101650005BB21846FFF782FF0837BD4680BD00BF6A
:1016600090B583B000AF78607B681C78FFF768FFA7
:1016700001467B685B781A467B689B780846114672
:101680001A46FFF7ADFF024663B218461146FFF750
:101690007DFF7B68DB78002B02D07868FFF7D2FFF4
:1016A000002318460C37BD4690BD00BF80B584B0FE
:1016B00000AF78600023FB737B685B7A83F00103E3
:1016C000DBB2002B0FD07B6859687B681A7A7B6885
:1016D0001B68084611461A46FFF796FC7B680122F4
:1016E0005A720023FB73FB7B18461037BD4680BD42
:1016F00080B582B000AF78607B6819687B681A7C1F
:101700007B680433084611461A46FEF741FE7B68A3
:1017100019687B681A7C7B685B7C084611461A4610
:10172000FFF7E6FE002318460837BD4680BD00BF20
:1017300080B485B000AF78607B6803F00703FB607E
:101740000C4BDB68BB60BA684FF6FF031340BB600D
:10175000FB681A02BB68134343F0BF6343F40033D2
:10176000BB60044ABB68D3601437BD465DF8047B98
:10177000704700BF00ED00E080B582B000AF0120EF
:10178000FFF7D6FF72B6214B214A9A60BFF34F8F05
:1017900062B61E4A1D4BD3F8883043F47003C2F87A
:1017A00088301C4B03F5805314331B687B607B68C7
:1017B00023F00F037B607B6843F004037B60154BD1
:1017C00003F5805314337A681A60104A0F4B5B6933
:1017D00023F0100353610D4A0C4B5B6923F008039F
:1017E00053610A4A094B5B6A23F480335362074A08
:1017F000064B5B6A23F400335362044A034B5B6A73
:1018000023F4802353620837BD4680BD00ED00E01D
:10181000000000080010005880B485B000AF786068
:101820000023FB737B6801221A70FB7B1846143778
:10183000BD465DF8047B704780B400AF024B18468C
:10184000BD465DF8047B7047001BB700B0B586B09D
:1018500000AF124B3C1D1D460FCD0FC42B682360FB
:101860003B1D1846FEF762FE0020FEF74FFF0020EA
:10187000FEF704FF0420FEF7D5FF01202021FFF72B
:1018800033F80020FEF70EFF0120FEF7F3FF0120E2
:10189000FEF7DCFF1837BD46B0BD00BF28200008AA
:1018A00080B485B000AFF8600B467A60FB72FB68CD
:1018B0009A68FB7A072101FA03F3DB431A40FB7AAB
:1018C000796801FA03F31A43FB689A601437BD463E
:1018D0005DF8047B704700BF80B483B000AF7860D0
:1018E0000B46FB707B68DB6823F00702FB7803F094
:1018F00007031A437B68DA600C37BD465DF8047B4A
:10190000704700BF80B483B000AF78607B68DB684D
:1019100043F480727B68DA600C37BD465DF8047B67
:10192000704700BF80B483B000AF78607B685B68AD
:1019300018460C37BD465DF8047B704780B483B011
:1019400000AF78607B681B6843F040027B681A60D8
:101950000C37BD465DF8047B704700BF80B483B090
:1019600000AF78607B681B6823F040027B681A60D8
:101970000C37BD465DF8047B704700BF80B483B070
:1019800000AF78607B681B6843F001027B681A60D7
:101990000C37BD465DF8047B704700BF80B483B050
:1019A00000AF78607B681B6823F001027B681A60D7
:1019B0000C37BD465DF8047B704700BF80B485B02E
:1019C00000AFF8600B467A60FB72FB681B68FA6830
:1019D00012689168FA7A072000FA02F2D2431140A5
:1019E000FA7A786800FA02F20A439A601437BD4620
:1019F0005DF8047B704700BF80B483B000AF7860AF
:101A00007B681B68DB6918460C37BD465DF8047BB4
:101A1000704700BF80B483B000AF786039607B68E6
:101A20001B687A68126811683A680A431A600C37B2
:101A3000BD465DF8047B704780B582B000AF78602A
:101A40007B681B6818464FF40031FFF7E3FF083747
:101A5000BD4680BD80B582B000AF78607B681B68F2
:101A600018464FF48031FFF7D5FF0837BD4680BDDB
:101A700080B584B000AF78600023FB60786800F028
:101A800031F87B6893F8A430002B03D0FB6843F057
:101A90000203FB607B6893F8A330002B03D0FB6844
:101AA00043F00403FB607B6893F8A530002B03D060
:101AB000FB6843F00803FB607B685B681846F968C5
:101AC000FFF7FAFC7B6893F8A630002B06D07B6802
:101AD0005B6818464FF48001FFF7EEFC1037BD46F7
:101AE00080BD00BF80B582B000AF78607B685A6867
:101AF0007B68D3F88C301B78104600211A46FFF71C
:101B0000CFFE7B685A687B68D3F88C305B781046D0
:101B100004211A46FFF7C4FE7B685A687B68D3F835
:101B20008C309B78104608211A46FFF7B9FE7B6877
:101B30005A687B68D3F88C30DB7810460C211A4643
:101B4000FFF7AEFE0837BD4680BD00BF80B582B04E
:101B500000AF78607B681B681846FFF7EFFA7B6878
:101B6000DB79002B0BD07B681A687B685B791046A9
:101B700004211A46FFF722FF7868FFF75DFF7B68B4
:101B80001B7A002B0BD07B681A687B689B79104608
:101B900000211A46FFF712FF7868FFF75BFF08374E
:101BA000BD4680BD80B584B000AF78600023FB7374
:101BB0007B681B681846FFF781FB0346FB73FB7BC2
:101BC00018461037BD4680BD80B584B000AF786040
:101BD0000023FB737B681B681846FFF79DFB0346D9
:101BE000FB73FB7B18461037BD4680BD80B584B0C3
:101BF00000AF78607B681B681846FFF7FDFEF86051
:101C0000FB6818461037BD4680BD00BF80B584B064
:101C100000AF78607B685B68FB60F868FFF782FE66
:101C2000B860BB6818461037BD4680BD80B586B029
:101C300000AF78600023FB757B68D3F89030FB60C1
:101C40007B681B681846FFF731FD0346FB75FB7D7B
:101C5000002B7BD17B685A687B689B6810461946CD
:101C6000FFF79AF87B685B681846FFF767FE7B68AA
:101C70005B681846FFF782FE7B6893F8A730002B5D
:101C800005D07B685B681846FFF73CFE18E07B6870
:101C9000D3F8983019687B68D3F898301A797B6844
:101CA000D3F89C30084611461A46FEF771FB7B6854
:101CB0005A687B6893F8A03010461946FFF70CFE6F
:101CC0007868FFF7D5FE00233B6119E07A683B692D
:101CD00002339B0013445B68BB607B681B685968D8
:101CE0007B6893F8A120BB681B79084611461A4609
:101CF000FFF734F9B868FFF729FF3B6901333B610F
:101D00007B6893F8A2301A463B699A42DED87B681A
:101D10005B681846FFF722FE7B685B681846FFF792
:101D20003DFE7B6893F8A73083F00103DBB2002B04
:101D30000ED0FB681968FB681A797B68D3F8943079
:101D4000084611461A46FEF723FB01E00123FB7506
:101D5000FB7D18461837BD4680BD00BF80B582B0F8
:101D600000AF0023FB711548FFF756FD0346FB71DA
:101D7000FB79002B04D11248FFF758FF0346FB7193
:101D8000FB79002B04D10F48FFF7B2FC0346FB712F
:101D9000FB79002B04D10C48FFF762FC0346FB7172
:101DA000FB79002B04D10948FFF7A2FC0346FB7125
:101DB000FB7918460837BD4680BD00BFFC8BFE1F6F
:101DC000DC21000800200008FC1F00081420000887
:101DD00080B483B000AF78600B46FB70FB780122C3
:101DE0009A407B685A600C37BD465DF8047B7047AB
:101DF00080B483B000AF78600B46FB70FB784FF483
:101E000080329A407B685A600C37BD465DF8047B8F
:101E1000704700BF80B483B000AF78600B46FB70A2
:101E20007B685A6AFB7822FA03F303F00103184631
:101E30000C37BD465DF8047B704700BF80B582B0AB
:101E400000AF78607B681A687B681B7C1046194677
:101E5000FFF7BEFF0837BD4680BD00BF80B582B02A
:101E600000AF78607B681A687B681B7C1046194657
:101E7000FFF7BEFF0837BD4680BD00BF80B582B00A
:101E800000AF78607B681A687B681B7C1046194637
:101E9000FFF7C0FF034618460837BD4680BD00BFA8
:101EA00080B5A2B000AF204A3B1D11467C221846E7
:101EB00000F098F8FFF752FF034687F8833097F851
:101EC0008330012B00D1FEE7184B1B78012B21D169
:101ED000164B00221A701648FFF7B0FF0223C7F80E
:101EE00084300FE0D7F884309B0007F18802134458
:101EF00053F8843C1846FFF755FED7F88430013379
:101F0000C7F88430D7F884301D2BEBDD0848FFF785
:101F1000A5FF08E00748FFF7B1FF0346002B02D1F9
:101F2000024B01221A70CFE784220008008CFE1FAA
:101F3000002000081420000880B582B000AF1248CD
:101F4000FFF764FE034603F00703002B19D10F4887
:101F5000FFF74CFE034603F00103002B11D00B48A2
:101F6000FFF732FE094B1B68DB7D7B60084B1B686B
:101F70007A689A4205D0064A7B681360054B0122B5
:101F80001A700837BD4680BDDC21000868200008B3
:101F9000F88BFE1F008CFE1F70B50E4B0E4CE41A22
:101FA000A41000251E46A54204D056F825309847B7
:101FB0000135F8E7FFF7BEFA084C094BE41AA41004
:101FC00000251E46A54204D056F825309847013515
:101FD000F8E770BDFC8BFE1FFC8BFE1FFC8BFE1F09
:101FE000FC8BFE1F10B5431E0A44914204D011F829
:101FF000014B03F8014FF8E710BD00004D3F000111
:102000000085024880000000000001000000000080
:1020100009000000008F02480000000000000000DE
:10202000000000000D00000030020101000001006E
:1020300000000000000001000201010100810248CF
:102040000C000000900000000100000002000000F1
:10205000008102480D0000000000000000000000A8
:1020600000000000000000001888FE1F230001008F
:10207000010000003888FE1F3B0000000000000047
:102080005888FE1F3A000000000000007888FE1FFC
:102090001B000000000000009888FE1F3F000000A9
:1020A00000000000B888FE1F1C00000000000000B7
:1020B000D888FE1F3E00000000000000F888FE1FC8
:1020C00019000000000000001889FE1F1A0000001F
:1020D000000000003889FE1F3D00000000000000E5
:1020E0005889FE1F1D000000000000007889FE1FB7
:1020F00014000000000000009889FE1F1700000077
:1021000000000000B889FE1F180000000000000059
:10211000D889FE1F1500000000000000F889FE1F8E
:102120001600000000000000188AFE1F06000000D4
:1021300000000000388AFE1F0500000000000000BB
:10214000588AFE1F0800000000000000788AFE1F69
:102150000700000000000000988AFE1F3C000000FD
:1021600000000000B88AFE1F090000000000000007
:10217000D88AFE1F2400000000000000F88AFE1F1D
:102180002500000000000000188BFE1F2600000044
:1021900000000000388BFE1F270000000000000038
:1021A000588BFE1F1E00000000000000788BFE1FF1
:1021B0001F00000000000000988BFE1F20000000A0
:1021C00000000000B88BFE1F21000000000000008E
:1021D000D88BFE1F22000000000000000088FE1FB8
:1021E000004301480C88FE1F682000087420000886
:1021F000802000088C20000898200008A4200008F7
:10220000B0200008BC200008C8200008D420000826
:10221000E0200008EC200008F82000080421000855
:10222000102100081C210008282100083421000882
:10223000402100084C2100085821000864210008B2
:10224000702100087C2100088821000894210008E2
:10225000A0210008AC210008B8210008C421000812
:10226000D021000800000000642000083C20000885
:1022700044200008502000085820000802011F00D8
:102280000000000000000000682000087420000822
:10229000802000088C20000898200008A420000856
:1022A000B0200008BC200008C8200008D420000886
:1022B000E0200008EC200008F820000804210008B5
:1022C000102100081C2100083421000840210008CA
:1022D0004C210008582100086421000870210008E2
:1022E0007C2100088821000894210008A021000812
:1022F000AC210008B8210008C4210008D021000842
:102300000044950800400148010000000044950881
:1023100020A10700401F0100605401480000008018
:10232000FF0700200800000000000000000000007F
:1023300000000000000000006057014840000080DD
:10234000FF0700200800000000000000000000005F
:10235000010000000000000040570148800000809C
:10236000FF0700200800000000000000000000003F
:10237000010000000000000060530148C000008020
:10238000FF0700200800000000000000000000001F
:102390000100000000000000E0570148000100803B
:1023A000FF070020080000000000000000000000FF
:1023B000010000000000000080530148400100803F
:1023C000FF070020080000000000000000000000DF
:1023D0000100000000000000C0570148800100809B
:1023E000FF070020080000000000000000000000BF
:1023F000010000000000000020530148C0010080DF
:10240000FF0700200800000000000000000000009E
:10241000010000000000000040530148000200805D
:10242000FF0700200800000000000000000000007E
:102430000100000000000000A05701484002008099
:10244000FF0700200800000000000000000000005E
:102450000100000000000000A0530148800200803D
:10246000FF0700200800000000000000000000003E
:10247000010000000000000080520148C0020080FE
:10248000FF0700200800000000000000000000001E
:102490000100000000000000E0520148000300803D
:1024A000FF070020080000000000000000000000FE
:1024B00001000000000000000053014840030080BC
:1024C000FF070020080000000000000000000000DE
:1024D0000100000000000000A052014880030080BD
:1024E000FF070020080000000000000000000000BE
:1024F0000100000000000000C0520148C00300803D
:10250000FF0700200800000000000000000000009D
:102510000100000000000000C050014800040080DD
:10252000FF0700200800000000000000000000007D
:102530000100000000000000A0500148400400809D
:10254000FF0700200800000000000000000000005D
:1025500001000000000000000051014880040080DC
:10256000FF0700200800000000000000000000003D
:102570000100000000000000E0500148C00400809D
:10258000FF0700200800000000000000000000001D
:102590000100000000000000805701480005008095
:1025A000FF070020080000000000000000000000FD
:1025B000010000000000000020510148400500809B
:1025C000FF070020080000000000000000000000DD
:1025D00001000000000000008054014880050080D8
:1025E000FF070020080000000000000000000000BD
:1025F0000100000000000000A0540148C005008058
:10260000FF0700200800000000000000000000009C
:102610000100000000000000C054014800060080D6
:10262000FF0700200800000000000000000000007C
:102630000100000000000000E05401484006008056
:10264000FF0700200800000000000000000000005C
:102650000100000000000000C05301488006008017
:10266000FF0700200800000000000000000000003C
:102670000100000000000000E0530148C006008097
:10268000FF0700200800000000000000000000001C
:102690000100000000000000005401480007008015
:1026A000FF070020080000000000000000000000FC
:1026B0000100000000000000205401484007008095
:1026C000FF070020080000000000000000000000DC
:1026D0000100000000000000405401488007008015
:1026E000FF070020080000000000000000000000BC
:0C26F0000100000000000000420000009B
:0400000508000201EC
:00000001FF
